:020000040040BA
:10000000B82D4020DD044000D9044000D904400050
:10001000D9044000D9044000D90440000000000089
:10002000000000000000000000000000D9044000B3
:10003000D904400000000000D9044000D904400069
:10004000D9044000D9044000D9044000D90440003C
:10005000D9044000D9044000D9044000D90440002C
:10006000D9044000000000000103400015034000D7
:1000700029034000D9044000D9044000D9044000BD
:100080003D03400051034000D9044000D904400022
:10009000D9044000D9044000D9044000D9044000EC
:1000A000D9044000D9044000D9044000D9044000DC
:1000B000D9044000D9044000D9044000D9044000CC
:1000C000D9044000D9044000D9044000D9044000BC
:1000D00000000000D904400000000000D9044000E6
:1000E000D9044000D9044000D9044000D90440009C
:1000F000D9044000D9044000D9044000D90440008C
:10010000D9044000D9044000D9044000D90440007B
:10011000D9044000000000000000000000000000C2
:10012000D9044000D9044000D9044000D90440005B
:10013000D904400000000000D9044000D904400068
:1001400010B5054C237833B9044B13B10448AFF311
:1001500000800123237010BD040D4020000000002A
:10016000741040000C4B43B10C480D4910B5AFF36F
:1001700000800C48036823B910BD0A48036833B9EE
:100180007047094B002BF7D0BDE810401847064BCD
:10019000002BF5D0184700BF00000000741040008D
:1001A000080D4020741040000000000010B51048F9
:1001B000104B98473E2100200F4B98470F4CA0470B
:1001C0000028FCD00E4B98470E4A0F4B9A620F4CFA
:1001D000A0470028FCD002200D4B984700200D4B73
:1001E00098470D4B98470248024B984710BD00BFF7
:1001F00000A3E111B1064000010440005504400095
:1002000065044000013F182000060E4075044000C0
:10021000650340009D034000A50540000AB9016642
:10022000704741667047016370474163704721F032
:100230000061B1F1405F05D1836B134214BF01200F
:1002400000207047C36BF8E7416412F0010F0DD135
:10025000016612F00A0F0BD0016212F0020F09D1F1
:1002600012F0080F08D0C0F8841005E04166F0E7EE
:100270004162F2E7C0F8801041610160704710B43C
:10028000019C41644CB901664BB101654AB94163B7
:10029000016101605DF8044B70474166F4E7416518
:1002A000F4E70163F4E7C06C7047806C70470000AE
:1002B0002DE9F041044688460E4B984705462046F6
:1002C0000D4B9847054013D00C4C04F1600603E039
:1002D000B4420DD010345DB120684045F8D161685A
:1002E0002942F5D0E3689847636825EA0305EFE7FC
:1002F000BDE8F081A7024000AB024000200D402085
:1003000008B50A210148024B984708BD000E0E406F
:10031000B102400008B50B210148024B984708BDC7
:1003200000100E40B102400008B50C210148024BFC
:10033000984708BD00120E40B102400008B51021D8
:100340000148024B984708BD00140E40B10240001E
:1003500008B511210148024B984708BD00160E4010
:10036000B1024000032811D0042812D002280CBF8B
:100370004FF480710021084A136B23F440730B4340
:100380001363936E13F0080FFBD070474FF4407166
:10039000F1E74FF40071EEE700060E40174A136BC9
:1003A00023F0700318431063936E13F0080F0AD103
:1003B0004FF4805311498A6E12F0080F03D1013BAC
:1003C000F9D1012070470D4A136B23F0030343F06A
:1003D00002031363936E13F0080F0AD14FF4805396
:1003E00006498A6E12F0080F05D1013BF9D10120B0
:1003F0007047002070470020704700BF00060E4085
:10040000A0B90E48036A090289B20D4A1A400D4B81
:100410001343194301620246936E13F0010FFBD0A0
:10042000064A116A084B0B431362704703490B6A73
:10043000064A1A40064B13430B62704700060E40F3
:10044000FCFFC8FF0100370000003701FCFFC8FEB9
:1004500002003701024B986E00F48030704700BFF5
:1004600000060E404FF00052014B9A62704700BFE9
:1004700000060E40024B986E00F00200704700BF6D
:1004800000060E403F281ED81F280CD8114B9A6931
:1004900001238340934318D0012303FA00F00D4B4E
:1004A00018610020704720380A4BD3F80821012337
:1004B000834093430BD0012303FA00F0054BC3F8AC
:1004C0000001002070470120704700207047002085
:1004D000704700BF00060E40FEE7000000B583B085
:1004E000254B264A9A4210D0254B234A9A420CD2D9
:1004F000013B9B1A23F00303043313441F4951F8B3
:10050000040B42F8040B9A42F9D11E4B1E4A9A4240
:100510000AD2013B9B1A23F0030304331344002146
:1005200042F8041B9342FBD1184A194B23F07F0376
:100530009360EFF31083B3FA83F35B09019372B610
:10054000BFF35F8F0022134B1A700199124A136890
:1005500043F470031360BFF34F8FBFF36F8F29B164
:1005600001220C4B1A70BFF35F8F62B60B4B98479A
:100570000B4B9847FEE700BF00004020741040007E
:10058000040D4020B40D4020040D402000ED00E09B
:10059000000040000A00402088ED00E0D50E400039
:1005A0001D0B40003B4B1B6B03F00303012B1DD0C5
:1005B00083B1022B36D0374B1B6B03F07003702BCB
:1005C0005FD0344B1A6B3449C2F302120B68D3402C
:1005D0000B607047314B5B6913F0800F14BF4FF411
:1005E00000424FF4FA422C4B1A60E4E7294B1B6A95
:1005F00013F0807F03D02A4A274B1A60DBE7294A91
:10060000254B1A60234B1B6A03F07003102B05D097
:10061000202BD0D1224A204B1A60CCE7224A1E4B15
:100620001A60C8E71B4B1B6A13F0807F16D01C4A68
:10063000194B1A60174B1B6B03F00303022BBAD143
:10064000144A916A926A1448C1F30A41036801FB93
:100650000333D2B2B3FBF2F30360ACE7114A0E4BA3
:100660001A600C4B1B6A03F07003102B05D0202B73
:10067000E0D10B4A084B1A60DCE70B4A064B1A60C4
:10068000D8E7054A13680949A1FB03135B08136007
:10069000704700BF00060E400C00402010180E40AE
:1006A000001BB70000093D0000127A00ABAAAAAAFD
:1006B000124B984211D9124B984213D9114B9842C0
:1006C00014D9114B984215D9104B984294BF4FF052
:1006D00004220F4A0F4B1A6070474FF080620D4B97
:1006E0001A6070470C4A0B4B1A6070470B4A094B53
:1006F0001A6070470A4A074B1A607047FF2C310195
:10070000FF596202FF869303FFB3C404FFE0F505BF
:1007100000050004000C0E4000010004000200046B
:10072000000300042DE9F04383B0244B98474FF4B5
:100730000042234B5A600C20224CA0470A20A047BD
:100740001020A047204E00224FF0007130461F4F6E
:10075000B84701224FF0007130461D4DA8470B20CD
:10076000A047DFF87480002201214046B8470122EB
:1007700011464046A8471020A04700240094234675
:1007800022464FF480711348DFF85090C847A8F50F
:10079000007822464FF400614046B8470094234653
:1007A00022464FF480113046C84701224FF40061C1
:1007B0004046A84703B0BDE8F08300BFAD0140004C
:1007C00050180E408504400000140E4049024000BD
:1007D0001D02400000120E4000100E407F0240003B
:1007E0002DE9F04F85B001900E46944D944C954FF5
:1007F00002E03846944B984701224FF0205128469A
:10080000A0470028F5D0019B03B34D2E00F36C8167
:10081000B3008E4A1A4401928D4D1D4400968D4EB0
:10082000DFF860924FF0000A019CA3462368029310
:100830004FF480718848894B9847236803EB830302
:100840009B00002B40F320810027B8E0CA2E00F364
:100850009480B300824A1A440292824D1D4400964D
:100860007C4EDFF820924FF0000A029CA3462368DA
:1008700003934FF480717848784B984723685B0066
:10088000002B4DDD019F0CE033206F4B98472CE08F
:1008900033206D4B98470137DBF80030B7EB430F3F
:1008A0003EDA01224FF020516448654B98470028FA
:1008B0006ED04FF480116C486C4B98472C462B68D7
:1008C0006B4890FBF3F00028DED0C317A0FB0601B5
:1008D00006FB0311674A002310EB090041EB0A01F4
:1008E000DFF89481C047584B98474FF480115E4819
:1008F0005A4B984723685E4890FBF3F00028C7D016
:10090000C317A0FB060106FB03115A4A002310EB94
:10091000090041EB0A01584CA0474B4B9847BAE7F6
:1009200001224FF020514548454B984700282FD0D1
:100930004FF4807148484D4B9847039860B34FEA95
:10094000E078A0FB060106FB081141F22C7200239F
:1009500041F22B774FF00008C01941EB0801464FD8
:10096000B847394B9847009B01330093029A0432F1
:1009700002920435CB2B7FF478AF4FF48071364868
:10098000364B98473D48304B98474FF0FF33009324
:10099000009805B0BDE8F08F33202B4B9847E2E775
:1009A0003320294B98472EE03320274B98470137B7
:1009B000DBF8003003EB8303B7EB830F64DA01222B
:1009C0004FF020511D481E4B98470028E0D04FF4AF
:1009D00080112548254B98472C462B68284890FBCA
:1009E000F3F00028DCD0C317A0FB060106FB0311BF
:1009F000204A002310EB090041EB0A01DFF8788060
:100A0000C047114B98474FF480111748134B984734
:100A100023681B4890FBF3F00028C5D0C317A0FB48
:100A2000060106FB0311134A002310EB090041EBFA
:100A30000A01114CA047044B9847B8E700100E403C
:100A40002F02400084B70700010040203C034020F3
:100A5000A007402000A3E11100120E402B0240002D
:100A6000100040207404402000140E402702400073
:100A700070110100E0835A00C50B400093952600D9
:100A8000E0930400DF835A0001224FF020511C48FC
:100A90001C4B984700283FF47BAF029B03EB83007D
:100AA00047004FF480711848184B98471FB3FB1745
:100AB000A7FB060106FB031141F22C72002341F251
:100AC0002B774FF00008C01941EB0801104FB847D1
:100AD000104B9847009B01330093019A0432019216
:100AE00004354E2B7FF4A0AE0B480A4B98474FF0CD
:100AF000FF3300934CE73320064B9847EAE700BFEB
:100B000000100E402F02400000120E40270240004D
:100B1000C50B400001004020939526002DE9F84FB9
:100B2000214B98474FF0000AD346DFF894904FF0DE
:100B300020551E4C1E4F1F4E26E04FF0000B01E0CB
:100B40003846B0474FF0007229464846A047002873
:100B5000F6D0012229461848A047A8B95146584660
:100B6000164B98478246B0F1FF3F14BF82464FF0C4
:100B7000000ADFF8448001E03846B04701222946E8
:100B80004046A0470028F7D04FF00072294648465B
:100B9000A0470028DDD1BBF1010FCED00BF1010B36
:100BA0004FF0000ACEE700BF250740002F024000AB
:100BB00084B707000100402000100E40E10740000C
:100BC00000140E4053B94AB9002908BF00281CBFC1
:100BD0004FF0FF314FF0FF3000F07AB9ADF1080C63
:100BE0006DE904CE00F006F8DDF804E0DDE902234B
:100BF00004B070472DE9F0478C460D460446089E28
:100C0000002B51D18A4217466DD9B2FA82FEBEF14D
:100C1000000F0BD0CEF1200C01FA0EF520FA0CFCDF
:100C200002FA0EF74CEA050C00FA0EF44FEA174AE6
:100C3000250CBCFBFAF81FFA87F90AFB18CC45EA29
:100C40000C4508FB09F3AB420AD9ED1908F1FF3254
:100C500080F02381AB4240F22081A8F102083D449C
:100C6000ED1AA4B2B5FBFAF00AFB105544EA0544AC
:100C700000FB09F9A14509D9E41900F1FF3380F01F
:100C80000A81A14540F2078102383C44A4EB0904E3
:100C900040EA08400021002E61D024FA0EF400231F
:100CA00034607360BDE8F0878B4207D9002E54D0C2
:100CB000002186E821000846BDE8F087B3FA83F1F9
:100CC000002940F08E80AB4202D3824200F2FA80CB
:100CD000841A65EB03050120AC46002E3FD086E860
:100CE0001010BDE8F08712B90127B7FBF2F7B7FA89
:100CF00087FEBEF1000F34D1EB1B3A0C1FFA87FCC4
:100D00000121B3FBF2F8250C02FB183345EA034539
:100D10000CFB08F3AB4207D9ED1908F1FF3002D202
:100D2000AB4200F2D1808046ED1AA3B2B5FBF2F0DF
:100D300002FB105543EA05440CFB00FCA44507D90F
:100D4000E41900F1FF3302D2A44500F2B88018463E
:100D5000A4EB0C0440EA08409DE731463046BDE86C
:100D6000F087CEF1200405FA0EF307FA0EF720FA09
:100D700004F83A0C25FA04F448EA0308B4FBF2F14B
:100D80004FEA184502FB11441FFA87FC45EA044567
:100D900001FB0CF3AB4200FA0EF409D9ED1901F195
:100DA000FF3080F08A80AB4240F2878002393D44B8
:100DB000EB1A1FFA88F5B3FBF2F002FB103345EA99
:100DC000034500FB0CF3AB4207D9ED1900F1FF38E6
:100DD0006FD2AB426DD902383D44EB1A40EA014173
:100DE0008FE7C1F1200722FA07F88B4005FA01F4DA
:100DF00048EA030320FA07FE4FEA134CFD404EEA8F
:100E0000040EB5FBFCF94FEA1E440CFB19551FFA02
:100E100083F844EA054509FB08F4AC4202FA01F202
:100E200000FA01FA08D9ED1809F1FF3043D2AC42BB
:100E300041D9A9F102091D442D1B1FFA8EFEB5FBF5
:100E4000FCF00CFB10554EEA054400FB08F8A045E9
:100E500007D9E41800F1FF3529D2A04527D9023877
:100E60001C4440EA0940A4EB0804A0FB02894C455D
:100E7000C6464D4615D312D056B1BAEB0E0364EBFD
:100E8000050404FA07F7CB401F43CC403760746079
:100E90000021BDE8F0871846F8E69046E0E6C24536
:100EA000EAD2B8EB020E69EB03050138E4E7284605
:100EB000D7E7404691E78146BEE7014678E702382A
:100EC0003C4445E7084608E7A8F102083D442BE703
:100ED000704700BF70B50F4E0F4D761BB61018BF90
:100EE000002405D0013455F8043B9847A642F9D1B7
:100EF0000A4E0B4D761B00F0A7F8B61018BF002461
:100F000006D0013455F8043B9847A642F9D170BD8C
:100F100070BD00BF54104000541040005C104000F1
:100F200054104000024B13B1024800F005B870475E
:100F300000000000450F4000002301461A461846F5
:100F400000F01EB838B50A4C0A4D641BA4100AD034
:100F500004F18043013B05EB8305013C55F804395E
:100F60009847002CF9D1BDE8384000F077B800BFB1
:100F70006C10400068104000704700BF704700BF11
:100F80002DE9F8432C4D0646286898460F469146B1
:100F9000FFF7F2FF294B1C68D4F84831002B3ED0F4
:100FA0005A681F2A1CDC02F1010E76B103EB8201A4
:100FB0000124C1F88890D3F8880194402043022E80
:100FC000C3F88801C1F8088123D00232C3F804E0D5
:100FD000286843F82270FFF7D1FF0020BDE8F883AE
:100FE000174B0BB34FF4C870AFF300800346D8B172
:100FF000D4F848210260002141600A46C4F8480143
:101000004FF0010EC0F88811C0F88C11002EDCD012
:10101000CCE7D3F88C110C43C3F88C41D5E704F529
:10102000A673C4F84831BBE72868FFF7A7FF4FF065
:10103000FF30BDE8F88300BF000D402044104000A1
:1010400000000000D8084020F8B500BFF8BC08BC7C
:101050009E467047250F400065014000F8B500BF6F
:0C106000F8BC08BC9E46704741014000EF
:08106C0088FBFF7F010000007A
:10107400BFF35F8F0138FBD17047010000093D00C9
:101084007D0000007D000000FA0000007D000000EB
:101094007D0000007D0000007D000000FA000000DB
:1010A4007D0000007D0000007D0000007D00000048
:1010B400FA0000007D0000007D0000007D000000BB
:1010C4007D000000770100007D0000007D0000002D
:1010D4007D000000FA0000007D0000007D0000009B
:1010E4007D0000007D000000FA0000007D0000008B
:1010F4007D0000007D0000007D000000FA0000007B
:101104007D0000007D0000007D0000007D000000E7
:10111400770100007D0000007D0000007D000000DC
:10112400FA0000007D0000007D0000007D0000004A
:101134007D000000FA0000007D0000007D0000003A
:101144007D0000007D000000FA0000007D0000002A
:101154007D0000007D0000007D0000007D00000097
:10116400FA0000007D0000007D0000007D0000000A
:10117400FA0000007D0000007D000000FA0000007D
:101184007D000000FA0000007D0000007D000000EA
:101194007D000000FA0000007D0000007D000000DA
:1011A4007D0000007D000000770100007701000051
:1011B400FA0000007D0000007D0000007D000000BA
:1011C400FA0000007D0000007D0000007D000000AA
:1011D4007D000000FA0000007D0000007D0000009A
:1011E4007D0000007D000000770100007D0000000C
:1011F4007D0000007D000000FA0000007D0000007A
:101204007D0000007D0000007D000000FA00000069
:101214007D0000007D0000007D0000007D000000D6
:10122400FA0000007D0000007D0000007D00000049
:101234007D000000770100007D0000007D000000BB
:101244007D000000FA0000007D0000007D00000029
:101254007D0000007D000000FA0000007D00000019
:101264007D0000007D0000007D000000FA00000009
:101274007D0000007D0000007D0000007D00000076
:101284007D000000FA0000007D0000007D000000E9
:101294007D000000FA0000007D0000007D000000D9
:1012A400FA0000007D000000FA0000007D0000004C
:1012B4007D0000007D000000FA0000007D000000B9
:1012C4007D0000007D0000007D000000770100002B
:1012D40077010000FA0000007D00000077010000A3
:1012E400FA0000007D000000770100007D0000008E
:1012F4007D0000007D0000007D0000007D000000F6
:101304007D0000007D0000007D00000077010000EA
:10131400FA0000007D00000077010000FA000000E0
:101324007D000000770100007D0000007D000000CA
:101334007D0000007D0000007D000000F40100003D
:10134400FA0000007D00000077010000FA000000B0
:101354007D000000770100007D0000007D0000009A
:101364007D0000007D0000007D0000007D00000085
:101374007D0000007D00000077010000FA000000FD
:101384007D00000077010000FA0000007D000000ED
:10139400770100007D0000007D0000007D0000005A
:1013A4007D0000007D000000F40100000C0000003E
:1013B4000C0000000C0000000C0000000C000000F9
:1013C4000C0000000C0000000C0000000C000000E9
:1013D4000C0000000C0000000C0000000C000000D9
:1013E4000C0000000C0000000C0000000C000000C9
:1013F4000C0000000C0000000C0000000C000000B9
:101404000C0000000C0000000C0000000C000000A8
:101414000C0000000C0000000C0000000C00000098
:101424000C0000000C0000000C000000090000008B
:1014340009000000090000000C0000000C0000007E
:101444000C0000000C0000000C0000000C00000068
:101454000C0000000C0000000C0000000C00000058
:101464000C0000000C0000000C0000000C00000048
:101474000C0000000C0000000C0000000C00000038
:101484000C0000000C0000000C0000000C00000028
:101494000C0000000C0000000C0000000C00000018
:1014A4000C0000000C00000009000000090000000E
:1014B400090000000C0000000C0000000C000000FB
:1014C4000C0000000C0000000C0000000C000000E8
:1014D4000C0000000C0000000C0000000C000000D8
:1014E4000C0000004A01000088010000B80100005F
:1014F400B801000000000000B8010000EE01000087
:101504000B0200000B020000000000000B020000B0
:101514004B020000EE010000EE010000000000009C
:10152400B801000088010000B801000000000000BC
:101534004A01000088010000B8010000B801000061
:1015440000000000B8010000EE0100000B020000E2
:101554000B020000000000000B0200004B02000020
:10156400EE010000EE01000000000000B8010000E0
:1015740088010000B8010000000000004A010000DA
:1015840088010000B8010000B8010000000000005C
:10159400B80100000B0200004B0200004B020000E7
:1015A400000000004B02000093020000BA02000099
:1015B400BA02000000000000930200004B02000089
:1015C40093020000B801000000000000B801000010
:1015D400EE0100000B0200000B02000000000000FE
:1015E4004B02000093020000B8010000000000005C
:1015F400B80100000B020000EE010000EE01000043
:10160400000000000B020000B8010000EE01000021
:1016140000000000B8010000B8010000B80100009B
:10162400EE0100000B0200000B02000000000000AD
:101634000B0200004B020000EE010000EE0100006E
:1016440000000000B801000088010000B80100009B
:10165400000000004A01000088010000B8010000F9
:10166400B801000000000000B8010000EE01000015
:101674000B0200000B020000000000000B0200003F
:101684004B020000EE010000EE010000000000002B
:10169400B801000088010000B8010000000000004B
:1016A4004A01000088010000B8010000B8010000F0
:1016B40000000000B80100000B0200004B02000013
:1016C4004B020000000000004B02000093020000E7
:1016D400BA020000BA0200000000000093020000F9
:1016E4004B02000093020000B8010000000000005B
:1016F400B8010000EE0100000B0200000B02000024
:10170400000000004B02000093020000B80100003A
:1017140000000000B80100000B020000EE01000010
:10172400EE010000000000000B020000B801000000
:10173400EE01000000000000930200000000000021
:1017440000000000BA0200000000000000000000D9
:101754009302000093020000000000001003000048
:1017640000000000930200004B0200000000000093
:10177400000000004B020000000000000000000018
:101784000B0200000000000000000000EE01000059
:101794000B02000000000000EE0100000000000049
:1017A400B8010000930200000000000000000000E7
:1017B400BA020000000000000000000093020000D4
:1017C400930200000000000010030000000000006D
:1017D400930200004B020000000000000000000023
:1017E4004B02000000000000000000000B0200009B
:1017F4000000000000000000EE0100000B020000E9
:1018040000000000EE01000000000000B80100002C
:101814004D0A00004D0A0000000000004D0A0000BF
:10182400000000002D0800004D0A00000000000028
:10183400400C000000000000000000000000000058
:10184400200600000000000000000000000000006E
:101854002D08000000000000000000002006000029
:101864000000000000000000270500000000000048
:1018740000000000E006000000000000B8070000BF
:101884000000000049070000E0060000000000001E
:10189400200600004D0A0000400C0000C00D0000AE
:1018A40000000000EA0A0000400C000000000000F4
:1018B4004D0A0000000000002D0800002D09000062
:1018C400B807000000000000000000002D08000020
:1018D40000000000000000002006000000000000DE
:1018E40000000000270500000000000000000000C8
:1018F400E006000000000000B8070000000000003F
:1019040049070000E0060000000000002006000077
:101914004D0A0000400C0000C00D00000000000053
:10192400EA0A0000400C0000000000004D0A00001C
:10193400000000002D0800002D090000B807000079
:10194400000000000000000000000000C40B402064
:101954002C0C4020940C40200000000000000000EB
:101964000000000000000000000000000000000073
:101974000000000000000000000000000000000063
:101984000000000000000000000000000000000053
:101994000000000000000000000000000000000043
:1019A4000000000000000000000000000000000033
:1019B4000000000000000000000000000000000023
:1019C4000000000000000000000000000000000013
:1019D4000000000000000000000000000000000003
:1019E40000000000000000000000000000000000F3
:1019F40001000000000000000E33CDAB34126DE690
:101A0400ECDE05000B0000000000000000000000F8
:101A140000000000000000000000000000000000C2
:101A240000000000000000000000000000000000B2
:101A340000000000000000000000000000000000A2
:101A44000000000000000000000000000000000092
:041D7400900D40206E
:04000005004004DDD6
:00000001FF
